{
  "contractName": "Vote",
  "abi": [
    {
      "inputs": [
        {
          "internalType": "bytes32[]",
          "name": "args",
          "type": "bytes32[]"
        },
        {
          "internalType": "address[]",
          "name": "addresses",
          "type": "address[]"
        }
      ],
      "payable": false,
      "stateMutability": "nonpayable",
      "type": "constructor"
    },
    {
      "constant": true,
      "inputs": [
        {
          "internalType": "uint256",
          "name": "",
          "type": "uint256"
        }
      ],
      "name": "candidates",
      "outputs": [
        {
          "internalType": "bytes32",
          "name": "",
          "type": "bytes32"
        }
      ],
      "payable": false,
      "stateMutability": "view",
      "type": "function"
    },
    {
      "constant": false,
      "inputs": [],
      "name": "getNumCandidates",
      "outputs": [
        {
          "internalType": "uint256",
          "name": "",
          "type": "uint256"
        }
      ],
      "payable": false,
      "stateMutability": "nonpayable",
      "type": "function"
    },
    {
      "constant": false,
      "inputs": [
        {
          "internalType": "uint8",
          "name": "n",
          "type": "uint8"
        }
      ],
      "name": "getCandidate",
      "outputs": [
        {
          "internalType": "bytes32",
          "name": "",
          "type": "bytes32"
        }
      ],
      "payable": false,
      "stateMutability": "nonpayable",
      "type": "function"
    },
    {
      "constant": false,
      "inputs": [
        {
          "internalType": "bytes32",
          "name": "name",
          "type": "bytes32"
        }
      ],
      "name": "getVotesForCandidate",
      "outputs": [
        {
          "internalType": "uint256",
          "name": "",
          "type": "uint256"
        }
      ],
      "payable": false,
      "stateMutability": "nonpayable",
      "type": "function"
    },
    {
      "constant": false,
      "inputs": [
        {
          "internalType": "bytes32",
          "name": "name",
          "type": "bytes32"
        }
      ],
      "name": "sendVote",
      "outputs": [
        {
          "internalType": "bool",
          "name": "",
          "type": "bool"
        }
      ],
      "payable": false,
      "stateMutability": "nonpayable",
      "type": "function"
    },
    {
      "constant": false,
      "inputs": [],
      "name": "eligible",
      "outputs": [
        {
          "internalType": "bool",
          "name": "",
          "type": "bool"
        }
      ],
      "payable": false,
      "stateMutability": "nonpayable",
      "type": "function"
    },
    {
      "constant": false,
      "inputs": [],
      "name": "validVoter",
      "outputs": [
        {
          "internalType": "bool",
          "name": "",
          "type": "bool"
        }
      ],
      "payable": false,
      "stateMutability": "nonpayable",
      "type": "function"
    },
    {
      "constant": false,
      "inputs": [],
      "name": "caller",
      "outputs": [
        {
          "internalType": "address",
          "name": "",
          "type": "address"
        }
      ],
      "payable": false,
      "stateMutability": "nonpayable",
      "type": "function"
    }
  ],
  "bytecode": "0x608060405234801561001057600080fd5b506040516106e83803806106e88339818101604052604081101561003357600080fd5b810190808051604051939291908464010000000082111561005357600080fd5b8382019150602082018581111561006957600080fd5b825186602082028301116401000000008211171561008657600080fd5b8083526020830192505050908051906020019060200280838360005b838110156100bd5780820151818401526020810190506100a2565b50505050905001604052602001805160405193929190846401000000008211156100e657600080fd5b838201915060208201858111156100fc57600080fd5b825186602082028301116401000000008211171561011957600080fd5b8083526020830192505050908051906020019060200280838360005b83811015610150578082015181840152602081019050610135565b5050505090500160405250505060008090505b81518110156101ef577fffffffffffffffffffffffffffffffffffffffffffffffffffffffffffffffff60008084848151811061019c57fe5b602002602001015173ffffffffffffffffffffffffffffffffffffffff1673ffffffffffffffffffffffffffffffffffffffff168152602001908152602001600020819055508080600101915050610163565b50816001908051906020019061020692919061020e565b505050610280565b82805482825590600052602060002090810192821561024a579160200282015b8281111561024957825182559160200191906001019061022e565b5b509050610257919061025b565b5090565b61027d91905b80821115610279576000816000905550600101610261565b5090565b90565b6104598061028f6000396000f3fe608060405234801561001057600080fd5b50600436106100885760003560e01c8063cde9370f1161005b578063cde9370f14610151578063cf1eee1814610196578063d832d92f146101dc578063fc9c8d39146101fe57610088565b80632f5bde231461008d5780633477ee2e146100cf5780635c06b06e146101115780638a4e18381461012f575b600080fd5b6100b9600480360360208110156100a357600080fd5b8101908080359060200190929190505050610248565b6040518082815260200191505060405180910390f35b6100fb600480360360208110156100e557600080fd5b8101908080359060200190929190505050610265565b6040518082815260200191505060405180910390f35b610119610286565b6040518082815260200191505060405180910390f35b610137610293565b604051808215151515815260200191505060405180910390f35b6101806004803603602081101561016757600080fd5b81019080803560ff1690602001909291905050506102ec565b6040518082815260200191505060405180910390f35b6101c2600480360360208110156101ac57600080fd5b8101908080359060200190929190505050610310565b604051808215151515815260200191505060405180910390f35b6101e46103a3565b604051808215151515815260200191505060405180910390f35b61020661041c565b604051808273ffffffffffffffffffffffffffffffffffffffff1673ffffffffffffffffffffffffffffffffffffffff16815260200191505060405180910390f35b600060026000838152602001908152602001600020549050919050565b6001818154811061027257fe5b906000526020600020016000915090505481565b6000600180549050905090565b6000806000803373ffffffffffffffffffffffffffffffffffffffff1673ffffffffffffffffffffffffffffffffffffffff1681526020019081526020016000205414156102e457600090506102e9565b600190505b90565b600060018260ff16815481106102fe57fe5b90600052602060002001549050919050565b600061031a6103a3565b610327576000905061039e565b6001600260008481526020019081526020016000205401600260008481526020019081526020016000208190555060016000803373ffffffffffffffffffffffffffffffffffffffff1673ffffffffffffffffffffffffffffffffffffffff16815260200190815260200160002081905550600190505b919050565b60007fffffffffffffffffffffffffffffffffffffffffffffffffffffffffffffffff6000803373ffffffffffffffffffffffffffffffffffffffff1673ffffffffffffffffffffffffffffffffffffffff1681526020019081526020016000205414156104145760019050610419565b600090505b90565b60003390509056fea265627a7a7231582091e09f40bb240abd9cabe84a5866ffd57d515e3ca9eb8e14e3ab95b77d535ff064736f6c63430005100032",
  "source": "pragma solidity >=0.4.4;\n\ncontract Vote{\n    //maps each address to a boolean (has this key voted yet)\n    //mapping (bytes32 => bool) hasVoted;\n    mapping(address => int) voterLog;\n\n    //array of candidate strings\n    bytes32[] public candidates;\n\n    //maps each candidate name to an integer holding their votes\n    mapping (bytes32 => uint) votes;\n\n    //Constructor takes in an array of candidates\n    constructor(bytes32[] memory args, address[] memory addresses) public{\n        for(uint i = 0; i < addresses.length; i++){\n            voterLog[addresses[i]] = -1;\n        }\n        candidates = args;\n    }\n\n    /* --- PUBLIC FUNCTIONS --- */\n\n    //returns the number of candidates\n    function getNumCandidates() public returns (uint256) {\n        return candidates.length;\n    }\n\n    //returns the name of the nth candidate\n    function getCandidate(uint8 n) public returns (bytes32){\n        return candidates[n];\n    }\n\n    //returns the number of votes this candidate has recieved\n    function getVotesForCandidate(bytes32 name) public returns (uint){\n        return votes[name];\n    }\n\n    //returns true if vote was successful, false otherwise\n    function sendVote(bytes32 name) public returns (bool){\n        if (!eligible()){\n            return false;\n        }\n        \n        votes[name] = votes[name] + 1;\n        voterLog[msg.sender] = 1;\n        return true;\n    }\n    \n    //returns true if the address is eligible to cast a vote\n    function eligible() public returns (bool){\n        if(voterLog[msg.sender] == -1){\n            return true;\n        }\n        return false;\n    }\n    \n    //returns true if the voter address is valid (regardless of if they have already voted)\n    function validVoter() public returns(bool){\n        if(voterLog[msg.sender] == 0){\n            return false;\n        }\n        return true;\n    }\n\n    //returns the address of the caller\n    function caller() public returns (address){\n        return msg.sender;\n    }\n}",
  "sourcePath": "/home/rithesh/Projects/blockchain/DeVote/contracts/Vote.sol",
  "compiler": {
    "name": "solc",
    "version": "0.5.16+commit.9c3226ce.Emscripten.clang"
  },
  "schemaVersion": "3.0.23",
  "updatedAt": "2020-04-25T14:36:53.563Z",
  "networkType": "ethereum",
  "devdoc": {
    "methods": {}
  },
  "userdoc": {
    "methods": {}
  }
}